:020000040800F2
:1000000000000220C11C0008111D0008111D00087D
:10001000111D0008111D0008111D0008000000003E
:100020000000000000000000000000009111000826
:10003000111D000800000000D11300083914000849
:10004000111D0008111D0008111D0008111D0008D8
:1000500000000000111D0008111D0008111D0008FE
:10006000111D0008111D0008111D0008111D0008B8
:10007000111D0008111D0008111D0008111D0008A8
:10008000111D0008111D0008111D0008111D000898
:10009000111D0008111D0008111D0008111D000888
:1000A000111D0008111D0008111D0008111D000878
:1000B000111D0008111D0008111D0008111D000868
:1000C000111D0008111D0008111D0008111D000858
:1000D000111D0008111D0008111D0008111D000848
:1000E000111D0008111D0008111D0008111D000838
:1000F000111D0008111D0008111D0008111D000828
:10010000111D0008111D0008111D0008111D000817
:10011000111D0008111D0008111D0008111D000807
:10012000111D0008111D0008111D0008111D0008F7
:10013000111D0008111D0008111D0008111D0008E7
:10014000111D0008111D0008111D0008111D0008D7
:10015000111D0008111D0008111D0008111D0008C7
:10016000111D0008111D0008111D0008111D0008B7
:10017000111D0008111D0008111D0008111D0008A7
:10018000111D0008111D0008000000000000000003
:10019000000000000000000000000000000000005F
:0801A000111D0008111D0008EB
:1001B00010B5054C237833B9044B13B10448AFF3A1
:1001C00000800123237010BD5404002000000000B3
:1001D0000C1F000808B5034B1BB103490348AFF3DC
:1001E000008008BD00000000580400200C1F00081B
:1001F00080B487B000AF7860396000237B61002352
:100200003B610023FB6000237B6176E001227B6978
:1002100002FA03F33B613B681B683A691340FB60D9
:10022000FA683B699A4265D17B681A687B695B0012
:10023000032101FA03F3DB431A407B681A607B68F1
:100240001A683B681B7919467B695B0001FA03F366
:100250001A437B681A603B681B79012B03D03B680B
:100260001B79022B2ED17B689A687B695B00032186
:1002700001FA03F3DB431A407B689A607B689A6853
:100280003B685B7919467B695B0001FA03F31A430B
:100290007B689A607B685A687B699BB21946012328
:1002A0008B40DB431A407B685A607B685B683A6826
:1002B000927911467A6992B201FA02F292B21A4325
:1002C0007B685A607B68DA687B699BB25B000321BC
:1002D00001FA03F3DB431A407B68DA607B68DA6873
:1002E0003B68DB7919467B695B0001FA03F31A432B
:1002F0007B68DA607B6901337B617B690F2B85D971
:1003000000BF1C37BD465DF8047B704780B485B0E4
:1003100000AF78600B467B800023FB737B681A6913
:100320007B881340002B02D00123FB7301E00023E4
:10033000FB73FB7B18461437BD465DF8047B7047A2
:1003400080B483B000AF78600B467B8013467B702F
:100350007B78002B03D07B687A881A8302E07B6865
:100360007A885A8300BF0C37BD465DF8047B70471E
:1003700080B485B000AF78600B467B8013467B70FD
:100380000023FB600023BB607A787B8803F00703BF
:100390009B0002FA03F3FB607B88DB089BB21A46E2
:1003A0007B68083253F822207B8803F007039B0008
:1003B0000F2101FA03F3DB437988C90889B20846A3
:1003C00002EA03017B6800F1080243F822107B88EF
:1003D000DB089BB21A467B68083253F82230FA6871
:1003E0001343BB607B88DB089BB21A467B680832EC
:1003F000B96843F8221000BF1437BD465DF8047B8E
:100400007047000080B400AF164B1B68154A43F0DC
:1004100001031360134B00229A60124B1B68114AB0
:1004200023F0A85323F4102313600E4B0E4A5A6096
:100430000C4B0E4AC3F884200A4B0D4AC3F888209F
:10044000084B1B68074A23F480231360054B0022E6
:10045000DA60044B0022C3F88C2000BFBD465DF873
:10046000047B704700380240103000240030002028
:100470000030002480B489B000AF78600023BB61F5
:1004800000237B610023FB6102233B610023FB60AF
:100490000223BB60474B9B6803F00C03BB61BB6945
:1004A000042B07D0082B09D0002B3DD17B68424A92
:1004B0001A603DE07B68414A1A6039E03D4B5B6859
:1004C0009B0D03F00103FB603A4B5B6803F03F03B5
:1004D000BB60FB68002B0CD0384ABB68B2FBF3F35F
:1004E000344A52689209C2F3080202FB03F3FB612B
:1004F0000BE0314ABB68B2FBF3F32E4A5268920913
:10050000C2F3080202FB03F3FB612A4B5B681B0C7E
:1005100003F0030301335B003B61FA693B69B2FB03
:10052000F3F27B681A6003E07B68234A1A6000BF1D
:10053000204B9B6803F0F003BB61BB691B09BB61E7
:100540001F4ABB6913441B78DBB27B617B681A6866
:100550007B69DA407B685A60164B9B6803F4E05372
:10056000BB61BB699B0ABB61154ABB6913441B781D
:10057000DBB27B617B685A687B69DA407B689A6092
:100580000C4B9B6803F46043BB61BB695B0BBB61B5
:100590000B4ABB6913441B78DBB27B617B685A68EA
:1005A0007B69DA407B68DA6000BF2437BD465DF8BE
:1005B000047B7047003802400024F40040787D013D
:1005C0000000002080B483B000AF78600B46FB7061
:1005D000FB78002B06D00A4B1A6B09497B68134342
:1005E0000B6306E0064B1A6B7B68DB430449134040
:1005F0000B6300BF0C37BD465DF8047B704700BF3E
:100600000038024080B483B000AF78600B46FB70C6
:10061000FB78002B06D00A4B1A6C09497B68134300
:100620000B6406E0064B1A6C7B68DB4304491340FD
:100630000B6400BF0C37BD465DF8047B704700BFFC
:100640000038024080B58AB000AF7860396000237E
:100650007B6200233B620023FB610023BB617B685C
:100660001B8A9BB27B627B6A23F440537B623B68AC
:10067000DB881A467B6A13437B627B6A9AB27B688B
:100680001A827B689B899BB27B627B6A23F4B0539E
:1006900023F00C037B623B689A883B681B891343F9
:1006A0009AB23B685B8913439BB21A467B6A134339
:1006B0007B627B6A9AB27B689A817B689B8A9BB2D9
:1006C0007B627B6A23F440737B623B689B891A469A
:1006D0007B6A13437B627B6A9AB27B689A8207F1DA
:1006E00008031846FFF7C6FE7B68304A934203D0E2
:1006F0007B682F4A934202D17B693B6201E03B69F0
:100700003B627B689B899BB21BB2002B0CDA3A6A76
:1007100013469B0013449A001A443B681B685B0015
:10072000B2FBF3F3FB610BE03A6A13469B00134400
:100730009A001A443B681B689B00B2FBF3F3FB6111
:10074000FB691C4AA2FB03235B091B017B627B6ADA
:100750001B09642202FB03F3FA69D31ABB617B68AD
:100760009B899BB21BB2002B0CDABB69DB003233D6
:10077000104AA2FB03235B0903F007037A6A1343C1
:100780007B620BE0BB691B0132330A4AA2FB0323E5
:100790005B0903F00F037A6A13437B627B6A9AB2A8
:1007A0007B681A8100BF2837BD4680BD001001401C
:1007B000001401401F85EB5180B483B000AF786016
:1007C0000B46FB70FB78002B08D07B689B899BB2A3
:1007D00043F400539AB27B689A8107E07B689B8957
:1007E0009BB223F400539AB27B689A8100BF0C3706
:1007F000BD465DF8047B704780B483B000AF78607D
:100800007B6803F108027B685A607B684FF0FF3217
:100810009A607B6803F108027B68DA607B6803F109
:1008200008027B681A617B6800221A6000BF0C37DF
:10083000BD465DF8047B704780B483B000AF78603C
:100840007B6800221A6100BF0C37BD465DF8047B4F
:10085000704780B485B000AF786039607B685B68B2
:10086000FB603B68FA685A60FB689A683B689A606C
:10087000FB689B683A685A60FB683A689A603B6814
:100880007A681A617B681B685A1C7B681A6000BF13
:100890001437BD465DF8047B704780B485B000AF67
:1008A00078607B681B69FB607B685B687A6892682C
:1008B0009A607B689B687A6852685A60FB685B68DC
:1008C0007A689A4203D17B689A68FB685A607B68B1
:1008D00000221A61FB681B685A1EFB681A60FB68DD
:1008E0001B6818461437BD465DF8047B704780B519
:1008F0008CB004AFF860B9603B601346FB80FB88A6
:100900009B00184600F0E6FD78617B69002B0ED055
:10091000582000F0DFFDF861FB69002B03D0FB6974
:100920007A691A6305E0786900F09CFE01E0002313
:10093000FB61FB69002B13D0FA8800230393FB694A
:100940000293FB6A0193BB6A00933B68B968F8683D
:1009500000F00EF8F86900F099F80123BB6102E09D
:100960004FF0FF33BB61BB6918462037BD4680BDE1
:1009700080B588B000AFF860B9607A603B603B6BCF
:10098000186B7B689B001A46A52101F0E7F93B6BC9
:100990001A6B7B6803F18043013B9B001344BB61EE
:1009A000BB6923F00703BB61BB6903F00703002B9E
:1009B00009D04FF0500383F31188BFF36F8FBFF35B
:1009C0004F8F7B61FEE7BB68002B1FD00023FB61CC
:1009D00012E0BA68FB69134419783A6BFB69134457
:1009E00034330A461A70BA68FB6913441B78002B2B
:1009F00006D0FB690133FB61FB69092BE9D900E0F3
:100A000000BF3B6B002283F83D2003E03B6B0022DC
:100A100083F83420BB6A042B01D90423BB623B6BEF
:100A2000BA6ADA623B6BBA6A9A643B6B0022DA6498
:100A30003B6B04331846FFF7FFFE3B6B1833184639
:100A4000FFF7FAFE3B6B3A6B1A61BB6AC3F1050212
:100A50003B6B9A613B6B3A6B5A623B6B00221A65A7
:100A60003B6B002283F854203A68F968B86900F0BB
:100A700031FB02463B6B1A60FB6A002B02D0FB6A1B
:100A80003A6B1A6000BF2037BD4680BD80B582B08A
:100A900000AF786000F042FC2C4B1B6801332B4AFE
:100AA00013602B4B1B68002B09D1294A7B6813600C
:100AB000264B1B68012B10D100F070FA0DE0254B7E
:100AC0001B68002B09D1224B1B68DA6A7B68DB6A42
:100AD0009A4202D81E4A7B6813601F4B1B68013381
:100AE0001D4A13601C4B1A687B681A647B68DB6ABA
:100AF00001229A40194B1B681343184A13607B6804
:100B0000DA6A13469B0013449B00154A1A447B681B
:100B1000043319461046FFF79CFE00F02DFC0D4BE8
:100B20001B68002B0ED00A4B1B68DA6A7B68DB6AF5
:100B30009A4207D20B4B4FF080521A60BFF34F8F8F
:100B4000BFF36F8F00BF0837BD4680BD480500204A
:100B5000700400205405002064050020500500208A
:100B60007404002004ED00E080B586B002AF1B4B9A
:100B70000193002300930023822219491948FFF7AB
:100B8000B6FEF860FB68012B15D14FF0500383F3DC
:100B90001188BFF36F8FBFF34F8FBB60124B4FF0C5
:100BA000FF321A60114B01221A60114B00221A60A9
:100BB00000F016FB0DE0FB68B3F1FF3F09D14FF0E9
:100BC000500383F31188BFF36F8FBFF34F8F7B60A8
:100BD000FEE700BF1037BD4680BD00BF6C0500209A
:100BE000241F00086D0F0008680500205405002030
:100BF0004C05002080B400AF044B1B680133034A4E
:100C0000136000BFBD465DF8047B7047700500208F
:100C100080B584B000AF0023FB600023BB60414B74
:100C20001B68002B09D14FF0500383F31188BFF3E9
:100C30006F8FBFF34F8F3B60FEE700F06FFB394BC8
:100C40001B68013B374A1360364B1B68002B61D190
:100C5000354B1B68002B5DD02EE0344BDB68DB6826
:100C6000FB60FB6818331846FFF717FEFB68043378
:100C70001846FFF712FEFB68DB6A01229A402C4BF4
:100C80001B6813432A4A1360FB68DA6A13469B0009
:100C900013449B00274A1A44FB6804331946104644
:100CA000FFF7D7FDFB68DA6A234B1B68DB6A9A42C1
:100CB00002D3224B01221A601C4B1B68002BCCD1A3
:100CC000FB68002B01D000F0E5F91D4B1B687B6031
:100CD0007B68002B10D000F037F80346002B02D0C1
:100CE000164B01221A607B68013B7B607B68002BFE
:100CF000F1D1134B00221A60104B1B68002B09D056
:100D00000123BB600F4B4FF080521A60BFF34F8F2F
:100D1000BFF36F8F00F030FBBB6818461037BD463D
:100D200080BD00BF70050020480500200805002098
:100D30005005002074040020700400205C05002091
:100D40005805002004ED00E080B586B000AF002318
:100D50007B614E4B1B68002B40F08D804C4B1B6819
:100D600001333B614A4A3B6913603B69002B1FD149
:100D7000484B1B681B68002B09D04FF0500383F3CE
:100D80001188BFF36F8FBFF34F8F3B60FEE7414B7E
:100D90001B68FB60404B1B683E4A13603E4AFB6881
:100DA00013603E4B1B6801333C4A136000F072F93C
:100DB0003B4B1B683A699A4248D3364B1B681B6809
:100DC000002B04D1364B4FF0FF321A603EE0314B1E
:100DD0001B68DB68DB68BB60BB685B687B603A698B
:100DE0007B689A4203D22E4A7B6813602EE0BB6870
:100DF00004331846FFF751FDBB689B6A002B04D0F3
:100E0000BB6818331846FFF748FDBB68DB6A012250
:100E10009A40244B1B681343224A1360BB68DA6A6A
:100E200013469B0013449B001F4A1A44BB680433BB
:100E300019461046FFF70DFDBB68DA6A1B4B1B68AD
:100E4000DB6A9A42B9D301237B61B6E7174B1B6873
:100E5000DA6A154913469B0013449B000B441B6838
:100E6000012B01D901237B61114B1B68002B07D09B
:100E700001237B6104E00F4B1B6801330D4A1360B3
:100E80007B6918461837BD4680BD00BF700500203D
:100E90004C0500200005002004050020600500200E
:100EA0006805002050050020740400207004002014
:100EB0005C0500205805002080B487B000AF264BA9
:100EC0001B68002B03D0254B01221A603EE0234B08
:100ED00000221A60224B1B68FB60FB68B3FA83F3A5
:100EE000FB72FB7AC3F11F037B611E497A691346CB
:100EF0009B0013449B000B441B68002B09D14FF04F
:100F0000500383F31188BFF36F8FBFF34F8F7B6064
:100F1000FEE77A6913469B0013449B00114A134471
:100F20003B613B695B685A683B695A603B695A6838
:100F30003B6908339A4204D13B695B685A683B6954
:100F40005A603B695B68DB68074A136000BF1C3767
:100F5000BD465DF8047B7047700500205C050020ED
:100F600050050020740400207004002080B582B079
:100F700000AF786000F052F8064B1B68012BF9D9DE
:100F8000054B4FF080521A60BFF34F8FBFF36F8F46
:100F9000F0E700BF7404002004ED00E080B582B0EB
:100FA00000AF00237B600CE07A6813469B0013447B
:100FB0009B00124A13441846FFF71EFC7B6801335E
:100FC0007B607B68042BEFD90D48FFF715FC0D48BB
:100FD000FFF712FC0C48FFF70FFC0C48FFF70CFC66
:100FE0000B48FFF709FC0B4B054A1A600A4B054AF0
:100FF0001A6000BF0837BD4680BD00BF74040020E2
:10100000D8040020EC040020080500201C05002066
:1010100034050020000500200405002080B582B0C2
:1010200000AF19E000F07AF90F4BDB68DB687B60FA
:101030007B6804331846FFF730FC0C4B1B68013B00
:101040000A4A13600A4B1B68013B094A136000F00F
:1010500093F9786800F00EF8054B1B68002BE1D17E
:1010600000BF0837BD4680BD1C0500204805002094
:101070003005002080B582B000AF78607B681B6BC4
:10108000184600F0EFFA786800F0ECFA00BF083775
:10109000BD4680BD80B483B000AF0C4B1B681B689D
:1010A000002B04D10A4B4FF0FF321A6008E0074BC7
:1010B0001B68DB68DB687B607B685B68044A1360E5
:1010C00000BF0C37BD465DF8047B7047000500206B
:1010D0006805002080B485B000AFF860B9607A6020
:1010E000FB68043BFB60FB684FF080721A60FB6892
:1010F000043BFB60BB6823F00102FB681A60FB68DD
:10110000043BFB600C4AFB681A60FB68143BFB6005
:101110007A68FB681A60FB68043BFB60FB686FF051
:1011200002021A60FB68203BFB60FB68184614371C
:10113000BD465DF8047B70473D11000880B485B062
:1011400000AF00237B60114B1B68B3F1FF3F09D058
:101150004FF0500383F31188BFF36F8FBFF34F8FAE
:10116000FB60FEE74FF0500383F31188BFF36F8FEE
:10117000BFF34F8FBB6000BF7B68002BFCD000BF6C
:101180001437BD465DF8047B704700BF1000002097
:10119000074B19680868B0E8F04F80F30988BFF37F
:1011A0006F8F4FF0000080F311887047AFF300801D
:1011B0007004002000BF00BF08480068006880F38A
:1011C00008884FF0000080F3148862B661B6BFF360
:1011D0004F8FBFF36F8F00DF00BF00BF08ED00E04F
:1011E00080B586B000AF444B1B68444A934209D196
:1011F0004FF0500383F31188BFF36F8FBFF34F8F0E
:101200003B61FEE73C4B1B683D4A934209D14FF0DE
:10121000500383F31188BFF36F8FBFF34F8FFB60D1
:10122000FEE7384B7B617B691B78DBB27B607B69B7
:10123000FF221A707B691B78DBB2FB70FB78DBB294
:1012400003F05003DAB2304B1A70304B07221A60A9
:1012500009E02E4B1B68013B2C4A1360FB78DBB284
:101260005B00DBB2FB70FB78DBB203F08003802B0A
:10127000EFD0264B1B68C3F10703042B09D04FF0B6
:10128000500383F31188BFF36F8FBFF34F8FBB60A1
:10129000FEE71E4B1B681B021C4A13601B4B1B689E
:1012A00003F4E063194A13607B68DAB27B691A7051
:1012B000174B1B68164A43F470031360144B1B68EA
:1012C000134A43F07043136000F0D6F8114B00222C
:1012D0001A6000F0F5F8104B1B680F4A43F04043CA
:1012E0001360FFF769FFFFF7E7FDFFF727FF002314
:1012F00018461837BD4680BD00ED00E071C20F41B1
:1013000070C20F4100E400E0740500207805002061
:1013100020ED00E01000002034EF00E080B483B046
:1013200000AF4FF0500383F31188BFF36F8FBFF30B
:101330004F8F7B600E4B1B6801330D4A13600C4BC3
:101340001B68012B0ED10B4B1B68DBB2002B09D0A5
:101350004FF0500383F31188BFF36F8FBFF34F8FAC
:101360003B60FEE700BF0C37BD465DF8047B70476D
:101370001000002004ED00E080B483B000AF114BFA
:101380001B68002B09D14FF0500383F31188BFF382
:101390006F8FBFF34F8F7B60FEE70A4B1B68013BEB
:1013A000084A1360074B1B68002B04D100233B60E5
:1013B0003B6883F3118800BF0C37BD465DF8047BA2
:1013C000704700BF10000020000000000000000077
:1013D000EFF30980BFF36F8F154B1A681EF0100FE3
:1013E00008BF20ED108A20E9F04F10602DE90900B8
:1013F0004FF0500080F31188BFF34F8FBFF36F8F12
:10140000FFF75AFD4FF0000080F3118809BC1968FE
:101410000868B0E8F04F1EF0100F08BFB0EC108A5B
:1014200080F30988BFF36F8F704700BFAFF3008070
:101430007004002000BF00BF80B582B000AF4FF045
:10144000500383F31188BFF36F8FBFF34F8F7B601F
:10145000FFF77AFC0346002B03D0064B4FF0805277
:101460001A6000233B603B6883F3118800BF083794
:10147000BD4680BD04ED00E080B400AF0B4B002200
:101480001A600B4B00221A600A4B1B680A4AA2FB27
:1014900003239B09094A013B1360044B07221A608E
:1014A00000BFBD465DF8047B704700BF10E000E060
:1014B00018E000E014000020D34D621014E000E0BA
:1014C000DFF80C00016841F470010160704700BF53
:1014D00088ED00E080B58AB000AF78600023FB6142
:1014E000FFF788FB594B1B68002B01D100F01AF95C
:1014F000574B1A687B681340002B40F091807B6843
:10150000002B1CD008227B6813447B607B6803F0AF
:101510000703002B13D07B6823F0070308337B609D
:101520007B6803F00703002B09D04FF0500383F3CF
:101530001188BFF36F8FBFF34F8F7B61FEE77B682E
:10154000002B6DD0434B1B687A689A4268D8424B97
:101550003B62414B1B687B6204E07B6A3B627B6AB7
:101560001B687B627B6A5B687A689A4203D97B6AF4
:101570001B68002BF1D1354B1B687A6A9A424FD019
:101580003B6A1B6808221344FB617B6A1A683B6A4A
:101590001A607B6A5A687B68D21A08235B009A42F9
:1015A0001ED97A6A7B681344BB61BB6903F00703E9
:1015B000002B09D04FF0500383F31188BFF36F8FD6
:1015C000BFF34F8F3B61FEE77B6A5A687B68D21A94
:1015D000BB695A607B6A7A685A60B86900F004F99E
:1015E0001C4B1A687B6A5B68D31A1A4A1360194B42
:1015F0001A681A4B1B689A4203D2164B1B68174A8B
:1016000013607B6A5A68124B1B681A437B6A5A60E4
:101610007B6A00221A60124B1B680133104A136068
:10162000FFF7F6FAFB6903F00703002B09D04FF030
:10163000500383F31188BFF36F8FBFF34F8FFB60AD
:10164000FEE7FB6918462837BD4680BD843101207E
:1016500098310120883101207C3101208C3101201A
:101660009031012080B586B000AF78607B687B61E7
:101670007B68002B4BD008235B427A6913447B6163
:101680007B693B613B695A68234B1B681340002B05
:1016900009D14FF0500383F31188BFF36F8FBFF36D
:1016A0004F8FFB60FEE73B691B68002B09D04FF0B2
:1016B000500383F31188BFF36F8FBFF34F8FBB606D
:1016C000FEE73B695A68144B1B681340002B1ED081
:1016D0003B691B68002B1AD13B695A680E4B1B688B
:1016E000DB431A403B695A60FFF784FA3B695A684A
:1016F0000A4B1B681344094A1360386900F074F8F8
:10170000074B1B680133064A1360FFF781FA00BFDD
:101710001837BD4680BD00BF9831012088310120B7
:101720009431012080B485B000AF4FF49633BB6094
:10173000274BFB60FB6803F00703002B0CD0FB6812
:101740000733FB60FB6823F00703FB60BA68FB68A4
:10175000D31A1F4A1344BB60FB687B601D4A7B6839
:1017600013601C4B00225A607B68BA681344FB600C
:101770000822FB689B1AFB60FB6823F00703FB60F1
:10178000FB68154A1360144B1B6800225A60124B09
:101790001B6800221A607B683B603B68FA68D21ABB
:1017A0003B685A600C4B1A683B681A603B685B6880
:1017B0000A4A13603B685B68094A1360094B4FF0A3
:1017C00000421A6000BF1437BD465DF8047B7047C5
:1017D0007C0500207C310120843101208C310120E6
:1017E000883101209831012080B485B000AF786045
:1017F000284BFB6002E0FB681B68FB60FB681B6812
:101800007A689A42F7D8FB68BB60FB685B68BA6885
:1018100013447A689A4208D1FB685A687B685B680F
:101820001A44FB685A60FB687B607B68BB607B681E
:101830005B68BA681A44FB681B689A4218D1FB6857
:101840001A68154B1B689A420DD07B685A68FB6872
:101850001B685B681A447B685A60FB681B681A68DF
:101860007B681A6008E00C4B1A687B681A6003E01A
:10187000FB681A687B681A60FA687B689A4202D033
:10188000FB687A681A6000BF1437BD465DF8047BB8
:10189000704700BF7C3101208431012080B582B0C7
:1018A00002AFFEF7AFFD00F013F900F051F800238E
:1018B0000193012300930023822208490848FFF77F
:1018C00016F8002301930123009300238222054987
:1018D0000548FFF70CF8FFF747F9FEE72C1F000853
:1018E000ED180008381F00082119000880B582B0E3
:1018F00000AF7860084B1B78012B06D101224FF412
:1019000080510648FEF71CFDF4E700224FF4805199
:101910000248FEF715FDEDE79C310120000C024066
:1019200080B582B000AF786001210748FEF7EEFC79
:101930000346002B03D0054B01221A70F4E7034B3A
:1019400000221A70F0E700BF000002409C31012025
:1019500080B500AF00F052F800F002F800BF80BD83
:1019600080B586B000AF01214FF40030FEF74AFE8B
:1019700001210120FEF726FE07F1100308220021B5
:10198000184600F0EBF90C233B6102233B75012361
:10199000FB7507F1100319461648FEF729FC0722CC
:1019A00002211448FEF7E4FC072203211148FEF748
:1019B000DFFC3B4610220021184600F0CFF94FF41F
:1019C000E1333B600023BB810C237B8100233B81FF
:1019D0000023FB800023BB803B4619460648FEF7E8
:1019E00031FE01210448FEF7E7FE00BF1837BD466F
:1019F00080BD00BF000002400044004080B584B0BC
:101A000000AF01210120FEF7DDFD01210820FEF7D6
:101A1000D9FD01233B730023BB734FF48053BB609C
:101A200000237B730023FB7307F1080319460B485F
:101A3000FEF7DEFB00233B710023BB7101233B60FB
:101A400000237B710023FB713B4619460448FEF7D7
:101A5000CFFB00BF1037BD4680BD00BF000C024069
:101A60000000024080B500AF164BD3F88830154A0D
:101A700043F47003C2F88830134B1B68124A43F0DA
:101A800001031360104B00229A600F4B1B680E4A33
:101A900023F0847323F4803313600B4B0B4A5A609A
:101AA000094B1B68084A23F480231360064B00226D
:101AB000DA6000F089F8034B4FF000629A6000BFD3
:101AC00080BD00BF00ED00E000380240103000246F
:101AD00080B487B000AF00233B6100237B61022309
:101AE000FB600023BB6002237B60324B9B6803F0EA
:101AF0000C033B613B69042B07D0082B09D0002B5A
:101B00003DD12D4B2D4A1A603DE02B4B2C4A1A60DB
:101B100039E0284B5B689B0D03F00103BB60254B4C
:101B20005B6803F03F037B60BB68002B0CD0244A4A
:101B30007B68B2FBF3F31F4A52689209C2F30802B2
:101B400002FB03F37B610BE01C4A7B68B2FBF3F3FF
:101B5000184A52689209C2F3080202FB03F37B6140
:101B6000144B5B681B0C03F0030301335B00FB6049
:101B70007A69FB68B2FBF3F30F4A136003E00E4B84
:101B80000E4A1A6000BF0B4B9B681B0903F00F0342
:101B90000C4AD35CDBB23B61074B1A683B6922FA03
:101BA00003F3054A136000BF1C37BD465DF8047B94
:101BB000704700BF00380240140000200024F400E9
:101BC00040787D011800002080B483B000AF00236E
:101BD0007B6000233B60364B1B68354A43F48033FF
:101BE0001360334B1B6803F400333B607B680133A5
:101BF0007B603B68002B03D17B68B3F5A04FF0D12D
:101C00002B4B1B6803F40033002B02D001233B60F5
:101C100001E000233B603B68012B42D1244B1B6C4D
:101C2000234A43F080531364224B1B68214A43F438
:101C3000404313601E4B1E4A9B6893601C4B9B687D
:101C40001B4A43F400439360194B9B68184A43F4C2
:101C5000A0539360164B184A5A60154B1B68144AE0
:101C600043F08073136000BF114B1B6803F00073D7
:101C7000002BF9D0114B40F205721A600C4B9B6897
:101C80000B4A23F003039360094B9B68084A43F017
:101C90000203936000BF064B9B6803F00C03082B04
:101CA000F9D100BF0C37BD465DF8047B704700BF1B
:101CB000003802400070004019544007003C0240C8
:101CC0000D4885460D480E490E4A002302E0D458BF
:101CD000C4500433C4188C42F9D30B4A0B4C002374
:101CE00001E013600432A242FBD3FFF7BBFE00F019
:101CF00011F8FFF7D3FDFEE70000022000000020EE
:101D000054040020541F000854040020C431012052
:101D1000FEE7000070B50D4E0D4D761BB61006D0D7
:101D20000024013455F8043B9847A642F9D1094EE6
:101D3000094D761B00F0EAF8B61006D000240134F5
:101D400055F8043B9847A642F9D170BD481F0008DA
:101D5000481F0008501F0008481F0008F0B48607FD
:101D600043D0541E002A3ED0CAB2034602E014F10A
:101D7000FF3438D303F8012B9D07F8D1032C2BD95E
:101D8000CDB245EA05250F2C45EA054516D9A4F143
:101D900010073F0903F1200606EB071603F11002B6
:101DA00042E9045542E902551032B242F8D104F03A
:101DB0000F040137032C03EB07130DD91E462246EF
:101DC000043A032A46F8045BFAD8221F22F00302E1
:101DD0000432134404F003042CB1C9B21C4403F8C8
:101DE000011B9C42FBD1F0BC704714460346C5E77B
:101DF000024B13B1024800F005B870470000000024
:101E0000111E0008002301461A46184600F01EB8AD
:101E100038B50A4C0A4D641BA4100AD004F1804363
:101E2000013B05EB8305013C55F804399847002C2C
:101E3000F9D1BDE8384000F06FB800BF541F00086A
:101E4000501F0008704700BF704700BF2DE9F843DE
:101E50002B4D0646286898460F469146FFF7F2FF3D
:101E6000284B1C68D4F84831002B3DD05A681F2AF3
:101E70000DDC02F1010C16BB0232C3F804C0286865
:101E800043F82270FFF7E0FF0020BDE8F8831E4B07
:101E90007BB34FF4C870AFF30080034648B3D4F867
:101EA00048210021C0E900214FF0010CC4F848018D
:101EB0000A46C0F88811C0F88C11002EDCD003EB64
:101EC00082010124C1F88890D3F88801944020430E
:101ED000022EC3F88801C1F80881CDD1D3F88C1146
:101EE0000C43C3F88C41C7E704F5A673C4F8483126
:101EF000BCE72868FFF7A8FF4FF0FF30C5E700BF39
:101F000050040020441F000800000000F8B500BF86
:101F1000F8BC08BC9E467047F8B500BFF8BC08BCCA
:041F20009E46704722
:101F240049444C45000000004C45445F5461536BE8
:101F340000000000427574746F6E5F5461736B002F
:041F44002800002051
:081F4800F11D0008D50100089D
:041F5000B1010008D3
:101F5400000000000102030401020304060708094B
:101F6400AAAAAAAA007A030A00000000000000003E
:101F740001020304060708090000000014030020FE
:101F84007C030020E40300200000000000000000A7
:101F9400000000000000000000000000000000003D
:101FA400000000000000000000000000000000002D
:101FB400000000000000000000000000000000001D
:101FC400000000000000000000000000000000000D
:101FD40000000000000000000000000000000000FD
:101FE40000000000000000000000000000000000ED
:101FF40000000000000000000000000000000000DD
:1020040000000000000000000000000000000000CC
:1020140000000000000000000000000000000000BC
:1020240001000000000000000E33CDAB34126DE659
:10203400ECDE05000B0000000000000000000000C2
:10204400000000000000000000000000000000008C
:10205400000000000000000000000000000000007C
:10206400000000000000000000000000000000006C
:10207400000000000000000000000000000000005C
:0423A400A031012043
:0400000508001CC112
:00000001FF
