:020000040800F2
:1000000000000220D503000825040008250400088C
:10001000250400082504000825040008000000004D
:10002000000000000000000000000000250400089F
:10003000250400080000000025040008250400082D
:100040002504000825040008250400083D020008D6
:10005000000000002504000825040008250400080D
:1000600025040008250400082504000825040008CC
:1000700025040008250400082504000825040008BC
:1000800025040008250400082504000825040008AC
:10009000250400082504000825040008250400089C
:1000A000250400082504000825040008250400088C
:1000B000250400082504000825040008250400087C
:1000C000250400082504000825040008250400086C
:1000D000250400082504000825040008250400085C
:1000E000250400082504000825040008250400084C
:1000F000250400082504000825040008250400083C
:10010000250400082504000825040008250400082B
:10011000250400082504000825040008250400081B
:10012000250400082504000825040008250400080B
:1001300025040008250400082504000825040008FB
:1001400025040008250400082504000825040008EB
:1001500025040008250400082504000825040008DB
:1001600025040008250400082504000825040008CB
:1001700025040008250400082504000825040008BB
:10018000250400082504000800000000000000000D
:10019000000000000000000000000000000000005F
:0801A0002504000825040008F5
:1001A80010B5054C237833B9044B13B10448AFF3A9
:1001B80000800123237010BD6400002000000000AF
:1001C8005C0D000808B5034B1BB103490348AFF3A6
:1001D800008008BD00000000680000205C0D0008D9
:1001E80080B483B000AF094B7B60094B3B603B6830
:1001F8001B6843F008023B681A607B6803221A6098
:1002080000BF0C37BD465DF8047B704700EF00E087
:1002180000E100E080B500AF044800F08FF9FFF777
:10022800DFFF034800F08AF9FEE700BF740D0008FD
:10023800980D000880B500AF024800F07FF900BFB4
:1002480080BD00BFBC0D000880B586B000AFF86067
:10025800B9607A6000237B610AE0AFF30080014651
:10026800BB685A1CBA60CAB21A707B6901337B61D9
:100278007A697B689A42F0DB7B6818461837BD4676
:1002880080BD80B586B000AFF860B9607A600023A1
:100298007B6109E0BB685A1CBA601B78184600F0FD
:1002A80041F87B6901337B617A697B689A42F1DBAB
:1002B8007B6818461837BD4680BD80B483B000AF50
:1002C80078604FF0FF3318460C37BD465DF8047B65
:1002D800704780B483B000AF786039603B684FF4F2
:1002E80000525A60002318460C37BD465DF8047B5F
:1002F800704780B483B000AF7860012318460C378C
:10030800BD465DF8047B704780B485B000AFF860E7
:10031800B9607A60002318461437BD465DF8047B3F
:100328007047000080B483B000AF0346FB710F4BE9
:100338001B680E4A43F0807313600D4B1B680C4A10
:1003480043F00103136000BF4FF060431B6803F0E4
:100358000103002BF8D04FF06042FB79136000BF17
:100368000C37BD465DF8047B704700BFFCED00E02C
:10037800000E00E080B584B000AF7860114B1B68B8
:10038800002B02D10F4B104A1A600E4B1B68FB6002
:100398000C4B1A687B6813446A46934207D900F0ED
:1003A8003FF802460C2313604FF0FF3306E0054B7D
:1003B8001A687B681344034A1360FB6818461037B1
:1003C800BD4680BD80000020900000200D48854675
:1003D8000D480E490E4A002302E0D458C450043395
:1003E800C4188C42F9D30B4A0B4C002301E013606C
:1003F8000432A242FBD3AFF3008000F017F8FFF7F6
:1004080009FFFEE700000220000000206400002031
:10041800400E00086400002090000020FEE7000065
:10042800014B1868704700BF0000002070B50D4EE2
:100438000D4CA41BA4100025A54209D10B4E0C4C51
:1004480000F088FCA41BA4100025A54205D170BDAE
:1004580056F8253098470135EEE756F82530984785
:100468000135F2E7380E0008380E0008380E00088B
:100478003C0E000802440346934200D1704703F83B
:10048800011BF9E770B50E46054618B183690BB92B
:1004980000F00CFAAB69AC6813B9284600F006FA0C
:1004A800234B9C4217D16C68A3891B071DD5236970
:1004B800DBB1013EA36816F8011F013BA360E9B94F
:1004C800002B2EDA22460A21284600F03FF8013098
:1004D80011D00A2011E0174B9C4201D1AC68E3E728
:1004E800154B9C4208BFEC68DEE72146284600F021
:1004F8007FF80028DDD04FF0FF3070BD002B04DA04
:10050800A2699A4206DC0A2904D023685A1C226090
:100518001970CFE72246284600F018F80130C9D1F3
:10052800E9E723680A205A1C22601870E5E700BF33
:10053800F80D0008180E0008D80D0008024B0146F7
:100548001868FFF79FBF00BF00000020F8B50E46EF
:100558001446054618B183690BB900F0A7F9214B79
:100568009C422AD16C68A369A360A3891A072ED577
:10057800236963B323692068C01A6369F6B28342AA
:10058800374604DC2146284600F026F928BBA36834
:10059800013BA36023685A1C22601E706369013006
:1005A800834204D0A389DB0719D50A2E17D1214627
:1005B800284600F011F990B10FE00B4B9C4201D195
:1005C800AC68D0E7094B9C4208BFEC68CBE72146F2
:1005D800284600F00DF80028CCD04FF0FF373846F9
:1005E800F8BD00BFF80D0008180E0008D80D000867
:1005F800324B70B51D6806460C4625B1AB6913B978
:10060800284600F053F92E4B9C420FD16C68B4F980
:100618000C309AB215072CD4D00611D409223260B6
:1006280043F04003A3814FF0FF303EE0254B9C424E
:1006380001D1AC68EBE7244B9C4208BFEC68E6E7C5
:10064800510712D5616B41B104F14403994202D0BC
:10065800304600F019FA00236363A38923F02403CA
:10066800A3810023636023692360A38943F00803FF
:10067800A38123694BB9A38903F42073B3F5007FE1
:1006880003D02146304600F0BFF9A28912F00103D9
:100698000CD00023A36063695B42A361236953B94B
:1006A800B4F90C3013F08000BAD170BD920758BF6E
:1006B8006369A360F2E70020F7E700BF00000020AD
:1006C800F80D0008180E0008D80D00088A892DE9D1
:1006D800F041054610070C4658D44B68002B05DC42
:1006E8000B6C002B02DC0020BDE8F081E66A002ECE
:1006F800F9D0002312F480522F68216A2B6032D07F
:10070800606DA3895A0705D56368C01A636B0BB17E
:10071800236CC01A00230246E66A216A2846B047BD
:10072800431CA38906D129681D2948D8294ACA40EB
:10073800D60744D500226260D9042269226004D514
:10074800421C01D12B6803B96065616B2F600029D9
:10075800C9D004F14403994202D0284600F094F924
:1007680000206063C0E701232846B047411CC8D178
:100778002B68002BC5D01D2B01D0162B01D12F6063
:10078800B1E7A38943F04003A381ADE70F69002FC8
:10079800A9D093070E6808BF4B690F6018BF0023E4
:1007A800A6EB07088B60B8F1000F9CDD43463A467C
:1007B800216AA66A2846B047002806DCA38943F0C8
:1007C8004003A3814FF0FF308EE70744A8EB0008F1
:1007D800E9E700BF0100402038B50B6905460C4623
:1007E800DBB118B183690BB900F060F80C4B9C427F
:1007F80009D16C68B4F90C307BB121462846BDE8B4
:100808003840FFF763BF074B9C4201D1AC68F1E762
:10081800054B9C4208BFEC68ECE7002038BD00BFE0
:10082800F80D0008180E0008D80D0008002310B5B0
:100838000446C0E90033836081814366C281C0E910
:1008480004338361194608225C30FFF713FE054B19
:100858006362054BA362054BE362054B2462236385
:1008680010BD00BF010C0008230C00085B0C000839
:100878007F0C0008014900F085B800BFE1070008B7
:1008880070B54A1E682555430E4605F1740100F0FF
:1008980049F9044640B10021C0E900160C30A060B7
:1008A80005F16802FFF7E6FD204670BD836910B5C3
:1008B800044633BBC0E912330365124B124A1B6866
:1008C8008262984204BF0123836100F01FF86060D0
:1008D800204600F01BF8A060204600F017F8002220
:1008E800E06004216068FFF7A1FF01220921A068E8
:1008F800FFF79CFF02221221E068FFF797FF012310
:10090800A36110BDD40D00087D080008F8B51B4B85
:100918001E68B369074613B93046FFF7C7FF483664
:10092800D6E90134013B03D5336833B13668F7E7BC
:10093800B4F90C506DB16834F4E704213846FFF778
:100948009FFF30600028F1D10C233B60044620460D
:10095800F8BD0B4B6566C4E90055A560C4E90335CD
:10096800C4E905550822294604F15C00FFF782FD19
:10097800C4E90D55C4E91255E9E700BFD40D0008D4
:100988000100FFFF2DE9F8438046894600F148043D
:10099800002614B93046BDE8F883D4E90175013F53
:1009A80001D52468F5E7AB89012B07D9B5F90E30D5
:1009B800013303D029464046C84706436835EEE769
:1009C80070B50E46B1F90E10002996B014461D46B2
:1009D80007DA00232B60B3891A0610D44FF480631A
:1009E8000EE06A4600F06EF90028F2DB019A02F484
:1009F8007042A2F500535A425A412A60EEE740235A
:100A08000020236016B070BD8B8973B59D0706461C
:100A18000C4607D504F14703236023610123636172
:100A280002B070BD01AB6A46FFF7CAFF00990546E0
:100A3800304600F077F848B9B4F90C309A05EFD48D
:100A480023F0030343F00203A381E3E70D4BB362F2
:100A5800A389206043F08003A381009B6361019B0D
:100A680020615BB1B4F90E10304600F03DF928B1B1
:100A7800A38923F0030343F00103A381A3891D4342
:100A8800A581CDE77D08000838B50546002945D081
:100A980051F8043C0C1F002BB8BFE41800F046F9CD
:100AA8001F4A1368104633B9636014602846BDE8CE
:100AB800384000F03CB9A3420CD92168621893422F
:100AC80004BF1A685B68636004BF52182260046040
:100AD800ECE713465A680AB1A242FAD919685818BD
:100AE800A0420BD120680144581882421960DDD118
:100AF800106852685A6001441960D7E702D90C237C
:100B08002B60D3E7206821188A4204BF1168526815
:100B1800626004BF091821605C60C7E738BD00BF88
:100B28008400002070B5CD1C25F0030508350C2D78
:100B380038BF0C25002D064601DBA94203D90C233A
:100B48003360002070BD00F0F1F8214A1468214696
:100B580091B9204C23681BB9304600F03DF820605D
:100B68002946304600F038F8431C24D10C23336062
:100B7800304600F0DCF8E4E70B685B1B18D40B2B5D
:100B88000FD90B60CD50CC18304600F0D0F804F1E6
:100B98000B00231D20F00700C31AD3D05A42E2509D
:100BA800D0E78C424B6816BF636013600C46EBE7D6
:100BB8000C464968CCE7C41C24F00304A04205D0C5
:100BC800211A304600F008F80130CFD02560DBE765
:100BD800840000208800002038B5064C0023054614
:100BE80008462360FFF7C6FB431C02D1236803B104
:100BF8002B6038BD8C00002010B50C46B1F90E10E2
:100C080000F096F80028ABBF636DA3891B1823F486
:100C18008053ACBF6365A38110BD2DE9F0411F4629
:100C28008B89DB0505460C46164605D502230022AE
:100C3800B1F90E1000F068F8A389B4F90E1023F486
:100C48008053A38132463B462846BDE8F04100F078
:100C580017B810B50C46B1F90E1000F055F8431C42
:100C6800A38915BF606523F4805343F48053A3819F
:100C780018BFA38110BDB1F90E1000F013B8000021
:100C880038B5074C054608461146002222601A4628
:100C9800FFF7F7FA431C02D1236803B12B6038BD74
:100CA8008C00002038B5064C002305460846236012
:100CB800FFF703FB431C02D1236803B12B6038BD47
:100CC8008C00002038B5074C00230546084611461D
:100CD8002360FFF7FEFA431C02D1236803B12B609F
:100CE80038BD00BF8C00002038B5064C00230546EF
:100CF80008462360FFF7FDFA431C02D1236803B1BD
:100D08002B6038BD8C00002038B5074C05460846D6
:100D18001146002222601A46FFF7F6FA431C02D158
:100D2800236803B12B6038BD8C00002070477047E2
:100D380038B5074C054608461146002222601A4677
:100D4800FFF782FA431C02D1236803B12B6038BD38
:100D58008C000020F8B500BFF8BC08BC9E46704760
:0C0D6800F8B500BFF8BC08BC9E46704700
:100D7400496E20746872656164206D6F6465203A01
:100D8400206265666F726520696E74657272757033
:100D940074000000496E20746872656164206D6F90
:100DA4006465203A20616674657220696E746572A8
:100DB4007275707400000000496E2068616E646C86
:100DC4006572206D6F6465203A204953520000001B
:100DD40004000020000000000000000000000000EB
:100DE40000000000000000000000000000000000FF
:100DF40000000000000000000000000000000000EF
:100E040000000000000000000000000000000000DE
:100E140000000000000000000000000000000000CE
:100E240000000000000000000000000000000000BE
:040E340000000000BA
:040E3800CD010008E0
:040E3C00A901000800
:100E40000400002000000000F80D0008180E000843
:100E5000D80D0008000000000000000000000000A5
:100E60000000000000000000000000000000000082
:100E70000000000000000000000000000000000072
:100E80000000000000000000000000000000000062
:100E90000000000000000000000000000000000052
:040EA000000000004E
:04000005080003D517
:00000001FF
